{
  "_format": "hh-sol-artifact-1",
  "contractName": "GmV2",
  "sourceName": "contracts/GmV2.sol",
  "abi": [
    {
      "inputs": [
        {
          "internalType": "string",
          "name": "baseURI",
          "type": "string"
        }
      ],
      "stateMutability": "nonpayable",
      "type": "constructor"
    },
    {
      "anonymous": false,
      "inputs": [
        {
          "indexed": true,
          "internalType": "address",
          "name": "owner",
          "type": "address"
        },
        {
          "indexed": true,
          "internalType": "address",
          "name": "approved",
          "type": "address"
        },
        {
          "indexed": true,
          "internalType": "uint256",
          "name": "tokenId",
          "type": "uint256"
        }
      ],
      "name": "Approval",
      "type": "event"
    },
    {
      "anonymous": false,
      "inputs": [
        {
          "indexed": true,
          "internalType": "address",
          "name": "owner",
          "type": "address"
        },
        {
          "indexed": true,
          "internalType": "address",
          "name": "operator",
          "type": "address"
        },
        {
          "indexed": false,
          "internalType": "bool",
          "name": "approved",
          "type": "bool"
        }
      ],
      "name": "ApprovalForAll",
      "type": "event"
    },
    {
      "anonymous": false,
      "inputs": [
        {
          "indexed": true,
          "internalType": "address",
          "name": "previousOwner",
          "type": "address"
        },
        {
          "indexed": true,
          "internalType": "address",
          "name": "newOwner",
          "type": "address"
        }
      ],
      "name": "OwnershipTransferred",
      "type": "event"
    },
    {
      "anonymous": false,
      "inputs": [
        {
          "indexed": true,
          "internalType": "address",
          "name": "from",
          "type": "address"
        },
        {
          "indexed": true,
          "internalType": "address",
          "name": "to",
          "type": "address"
        },
        {
          "indexed": true,
          "internalType": "uint256",
          "name": "tokenId",
          "type": "uint256"
        }
      ],
      "name": "Transfer",
      "type": "event"
    },
    {
      "inputs": [
        {
          "internalType": "address",
          "name": "to",
          "type": "address"
        },
        {
          "internalType": "uint256",
          "name": "tokenId",
          "type": "uint256"
        }
      ],
      "name": "approve",
      "outputs": [],
      "stateMutability": "nonpayable",
      "type": "function"
    },
    {
      "inputs": [
        {
          "internalType": "address",
          "name": "owner",
          "type": "address"
        }
      ],
      "name": "balanceOf",
      "outputs": [
        {
          "internalType": "uint256",
          "name": "",
          "type": "uint256"
        }
      ],
      "stateMutability": "view",
      "type": "function"
    },
    {
      "inputs": [],
      "name": "baseTokenURI",
      "outputs": [
        {
          "internalType": "string",
          "name": "",
          "type": "string"
        }
      ],
      "stateMutability": "view",
      "type": "function"
    },
    {
      "inputs": [
        {
          "internalType": "uint256",
          "name": "tokenId",
          "type": "uint256"
        }
      ],
      "name": "getApproved",
      "outputs": [
        {
          "internalType": "address",
          "name": "",
          "type": "address"
        }
      ],
      "stateMutability": "view",
      "type": "function"
    },
    {
      "inputs": [
        {
          "internalType": "address",
          "name": "addr",
          "type": "address"
        }
      ],
      "name": "getAvailableMintsForAddress",
      "outputs": [
        {
          "internalType": "uint256",
          "name": "",
          "type": "uint256"
        }
      ],
      "stateMutability": "view",
      "type": "function"
    },
    {
      "inputs": [],
      "name": "getBaseURI",
      "outputs": [
        {
          "internalType": "string",
          "name": "",
          "type": "string"
        }
      ],
      "stateMutability": "view",
      "type": "function"
    },
    {
      "inputs": [],
      "name": "getNormalTokenCount",
      "outputs": [
        {
          "internalType": "uint256",
          "name": "",
          "type": "uint256"
        }
      ],
      "stateMutability": "view",
      "type": "function"
    },
    {
      "inputs": [],
      "name": "getSpecialTokenCount",
      "outputs": [
        {
          "internalType": "uint256",
          "name": "",
          "type": "uint256"
        }
      ],
      "stateMutability": "view",
      "type": "function"
    },
    {
      "inputs": [],
      "name": "getSupply",
      "outputs": [
        {
          "internalType": "uint256",
          "name": "",
          "type": "uint256"
        }
      ],
      "stateMutability": "view",
      "type": "function"
    },
    {
      "inputs": [],
      "name": "getTotalTokenCount",
      "outputs": [
        {
          "internalType": "uint256",
          "name": "",
          "type": "uint256"
        }
      ],
      "stateMutability": "view",
      "type": "function"
    },
    {
      "inputs": [],
      "name": "gmDAOAddress",
      "outputs": [
        {
          "internalType": "address",
          "name": "",
          "type": "address"
        }
      ],
      "stateMutability": "view",
      "type": "function"
    },
    {
      "inputs": [
        {
          "internalType": "address",
          "name": "owner",
          "type": "address"
        },
        {
          "internalType": "address",
          "name": "operator",
          "type": "address"
        }
      ],
      "name": "isApprovedForAll",
      "outputs": [
        {
          "internalType": "bool",
          "name": "",
          "type": "bool"
        }
      ],
      "stateMutability": "view",
      "type": "function"
    },
    {
      "inputs": [],
      "name": "isMigrationActive",
      "outputs": [
        {
          "internalType": "bool",
          "name": "",
          "type": "bool"
        }
      ],
      "stateMutability": "view",
      "type": "function"
    },
    {
      "inputs": [],
      "name": "maxNormalTokens",
      "outputs": [
        {
          "internalType": "uint256",
          "name": "",
          "type": "uint256"
        }
      ],
      "stateMutability": "view",
      "type": "function"
    },
    {
      "inputs": [],
      "name": "maxSpecialTokens",
      "outputs": [
        {
          "internalType": "uint256",
          "name": "",
          "type": "uint256"
        }
      ],
      "stateMutability": "view",
      "type": "function"
    },
    {
      "inputs": [],
      "name": "maxSupply",
      "outputs": [
        {
          "internalType": "uint256",
          "name": "",
          "type": "uint256"
        }
      ],
      "stateMutability": "view",
      "type": "function"
    },
    {
      "inputs": [],
      "name": "name",
      "outputs": [
        {
          "internalType": "string",
          "name": "",
          "type": "string"
        }
      ],
      "stateMutability": "view",
      "type": "function"
    },
    {
      "inputs": [
        {
          "internalType": "address",
          "name": "",
          "type": "address"
        },
        {
          "internalType": "address",
          "name": "from",
          "type": "address"
        },
        {
          "internalType": "uint256[]",
          "name": "ids",
          "type": "uint256[]"
        },
        {
          "internalType": "uint256[]",
          "name": "values",
          "type": "uint256[]"
        },
        {
          "internalType": "bytes",
          "name": "",
          "type": "bytes"
        }
      ],
      "name": "onERC1155BatchReceived",
      "outputs": [
        {
          "internalType": "bytes4",
          "name": "",
          "type": "bytes4"
        }
      ],
      "stateMutability": "nonpayable",
      "type": "function"
    },
    {
      "inputs": [
        {
          "internalType": "address",
          "name": "",
          "type": "address"
        },
        {
          "internalType": "address",
          "name": "from",
          "type": "address"
        },
        {
          "internalType": "uint256",
          "name": "id",
          "type": "uint256"
        },
        {
          "internalType": "uint256",
          "name": "",
          "type": "uint256"
        },
        {
          "internalType": "bytes",
          "name": "",
          "type": "bytes"
        }
      ],
      "name": "onERC1155Received",
      "outputs": [
        {
          "internalType": "bytes4",
          "name": "",
          "type": "bytes4"
        }
      ],
      "stateMutability": "nonpayable",
      "type": "function"
    },
    {
      "inputs": [],
      "name": "owner",
      "outputs": [
        {
          "internalType": "address",
          "name": "",
          "type": "address"
        }
      ],
      "stateMutability": "view",
      "type": "function"
    },
    {
      "inputs": [
        {
          "internalType": "uint256",
          "name": "tokenId",
          "type": "uint256"
        }
      ],
      "name": "ownerOf",
      "outputs": [
        {
          "internalType": "address",
          "name": "",
          "type": "address"
        }
      ],
      "stateMutability": "view",
      "type": "function"
    },
    {
      "inputs": [],
      "name": "raribleContractAddress",
      "outputs": [
        {
          "internalType": "address",
          "name": "",
          "type": "address"
        }
      ],
      "stateMutability": "view",
      "type": "function"
    },
    {
      "inputs": [],
      "name": "raribleTokenId",
      "outputs": [
        {
          "internalType": "uint256",
          "name": "",
          "type": "uint256"
        }
      ],
      "stateMutability": "view",
      "type": "function"
    },
    {
      "inputs": [],
      "name": "renounceOwnership",
      "outputs": [],
      "stateMutability": "nonpayable",
      "type": "function"
    },
    {
      "inputs": [
        {
          "internalType": "uint256",
          "name": "tokenId",
          "type": "uint256"
        },
        {
          "internalType": "uint256",
          "name": "salePrice",
          "type": "uint256"
        }
      ],
      "name": "royaltyInfo",
      "outputs": [
        {
          "internalType": "address",
          "name": "receiver",
          "type": "address"
        },
        {
          "internalType": "uint256",
          "name": "royaltyAmount",
          "type": "uint256"
        }
      ],
      "stateMutability": "view",
      "type": "function"
    },
    {
      "inputs": [
        {
          "internalType": "address",
          "name": "from",
          "type": "address"
        },
        {
          "internalType": "address",
          "name": "to",
          "type": "address"
        },
        {
          "internalType": "uint256",
          "name": "tokenId",
          "type": "uint256"
        }
      ],
      "name": "safeTransferFrom",
      "outputs": [],
      "stateMutability": "nonpayable",
      "type": "function"
    },
    {
      "inputs": [
        {
          "internalType": "address",
          "name": "from",
          "type": "address"
        },
        {
          "internalType": "address",
          "name": "to",
          "type": "address"
        },
        {
          "internalType": "uint256",
          "name": "tokenId",
          "type": "uint256"
        },
        {
          "internalType": "bytes",
          "name": "_data",
          "type": "bytes"
        }
      ],
      "name": "safeTransferFrom",
      "outputs": [],
      "stateMutability": "nonpayable",
      "type": "function"
    },
    {
      "inputs": [
        {
          "internalType": "address",
          "name": "operator",
          "type": "address"
        },
        {
          "internalType": "bool",
          "name": "approved",
          "type": "bool"
        }
      ],
      "name": "setApprovalForAll",
      "outputs": [],
      "stateMutability": "nonpayable",
      "type": "function"
    },
    {
      "inputs": [
        {
          "internalType": "string",
          "name": "_uri",
          "type": "string"
        }
      ],
      "name": "setBaseURI",
      "outputs": [],
      "stateMutability": "nonpayable",
      "type": "function"
    },
    {
      "inputs": [
        {
          "internalType": "bytes4",
          "name": "interfaceId",
          "type": "bytes4"
        }
      ],
      "name": "supportsInterface",
      "outputs": [
        {
          "internalType": "bool",
          "name": "",
          "type": "bool"
        }
      ],
      "stateMutability": "view",
      "type": "function"
    },
    {
      "inputs": [],
      "name": "symbol",
      "outputs": [
        {
          "internalType": "string",
          "name": "",
          "type": "string"
        }
      ],
      "stateMutability": "view",
      "type": "function"
    },
    {
      "inputs": [],
      "name": "toggleMigrationActive",
      "outputs": [],
      "stateMutability": "nonpayable",
      "type": "function"
    },
    {
      "inputs": [
        {
          "internalType": "uint256",
          "name": "tokenId",
          "type": "uint256"
        }
      ],
      "name": "tokenURI",
      "outputs": [
        {
          "internalType": "string",
          "name": "",
          "type": "string"
        }
      ],
      "stateMutability": "view",
      "type": "function"
    },
    {
      "inputs": [
        {
          "internalType": "address",
          "name": "from",
          "type": "address"
        },
        {
          "internalType": "address",
          "name": "to",
          "type": "address"
        },
        {
          "internalType": "uint256",
          "name": "tokenId",
          "type": "uint256"
        }
      ],
      "name": "transferFrom",
      "outputs": [],
      "stateMutability": "nonpayable",
      "type": "function"
    },
    {
      "inputs": [
        {
          "internalType": "address",
          "name": "newOwner",
          "type": "address"
        }
      ],
      "name": "transferOwnership",
      "outputs": [],
      "stateMutability": "nonpayable",
      "type": "function"
    },
    {
      "inputs": [
        {
          "internalType": "uint256",
          "name": "qty",
          "type": "uint256"
        }
      ],
      "name": "upgradeBatch",
      "outputs": [],
      "stateMutability": "nonpayable",
      "type": "function"
    },
    {
      "inputs": [],
      "name": "upgradeSpecialToken",
      "outputs": [],
      "stateMutability": "nonpayable",
      "type": "function"
    },
    {
      "inputs": [],
      "name": "upgradeToken",
      "outputs": [],
      "stateMutability": "nonpayable",
      "type": "function"
    }
  ],
  "bytecode": "0x6080604052600a80546001600160a01b031990811673d07dc4262bcdbf85190c01c996b4c06a461d243017909155620ac7b0600b55600c805490911673d18e205b41eee3d208d3b10445db95ff02ba4aca179055610383600d55610344600e55603f600f553480156200007157600080fd5b5060405162002a4538038062002a458339810160408190526200009491620002cc565b604080518082018252600e81526d33b6a220a7902a37b5b2b7103b1960911b60208083019182528351808501909452600484526323a6ab1960e11b908401528151919291620000e691600091620001b5565b508051620000fc906001906020840190620001b5565b50505062000119620001136200015f60201b60201c565b62000163565b60016007556040516200013190829060200162000329565b6040516020818303038152906040526010908051906020019062000157929190620001b5565b505062000449565b3390565b600680546001600160a01b038381166001600160a01b0319831681179093556040519116919082907f8be0079c531659141344cd1fd0a4f28419497f9722a3daafe3b4186f6b6457e090600090a35050565b828054620001c390620003bd565b90600052602060002090601f016020900481019282620001e7576000855562000232565b82601f106200020257805160ff191683800117855562000232565b8280016001018555821562000232579182015b828111156200023257825182559160200191906001019062000215565b506200024092915062000244565b5090565b5b8082111562000240576000815560010162000245565b6000620002726200026c846200035d565b6200033e565b9050828152602081018484840111156200028b57600080fd5b620002988482856200038a565b509392505050565b600082601f830112620002b257600080fd5b8151620002c48482602086016200025b565b949350505050565b600060208284031215620002df57600080fd5b81516001600160401b03811115620002f657600080fd5b620002c484828501620002a0565b60006200030f825190565b6200031f8185602086016200038a565b9290920192915050565b600062000337828462000304565b9392505050565b60006200034a60405190565b9050620003588282620003ee565b919050565b60006001600160401b0382111562000379576200037962000433565b601f19601f83011660200192915050565b60005b83811015620003a75781810151838201526020016200038d565b83811115620003b7576000848401525b50505050565b600281046001821680620003d257607f821691505b60208210811415620003e857620003e86200041d565b50919050565b601f19601f83011681018181106001600160401b038211171562000416576200041662000433565b6040525050565b634e487b7160e01b600052602260045260246000fd5b634e487b7160e01b600052604160045260246000fd5b6125ec80620004596000396000f3fe608060405234801561001057600080fd5b50600436106102325760003560e01c806384c84e0911610130578063c87b56dd116100b8578063d5abeb011161007c578063d5abeb011461047b578063e536266714610484578063e985e9c51461048c578063f23a6e611461049f578063f2fde38b146104b257610232565b8063c87b56dd1461043c578063c9f8819d1461044f578063cbeb6bc814610462578063d3494d231461046b578063d547cfb71461047357610232565b8063a22cb465116100ff578063a22cb465146103db578063b2ebac29146103ee578063b358a251146103f6578063b88d4fde14610409578063bc197c811461041c57610232565b806384c84e09146103905780638da5cb5b1461039957806395d89b41146103aa5780639861e94f146103b257610232565b806327911b68116101be5780636c9c2faf116101825780636c9c2faf1461035d57806370a0823114610365578063714c539814610378578063715018a614610380578063753613181461038857610232565b806327911b68146102fb5780632a55205a1461030357806342842e0e1461032457806355f804b3146103375780636352211e1461034a57610232565b8063095ea7b311610205578063095ea7b3146102aa5780630c912555146102bd5780630e913a6c146102c557806311730095146102d257806323b872dd146102e857610232565b806301c644241461023757806301ffc9a71461024c57806306fdde0314610275578063081812fc1461028a575b600080fd5b61024a610245366004611aec565b6104c5565b005b61025f61025a366004611a7b565b6105e1565b60405161026c91906121fb565b60405180910390f35b61027d61060e565b60405161026c9190612217565b61029d610298366004611aec565b6106a0565b60405161026c919061218e565b61024a6102b8366004611a4b565b6106f0565b61024a610776565b60115461025f9060ff1681565b6102db600f5481565b60405161026c91906123a8565b61024a6102f63660046118c8565b610892565b6102db6108c3565b610316610311366004611b0a565b6108d3565b60405161026c9291906121e0565b61024a6103323660046118c8565b610936565b61024a610345366004611ab7565b610951565b61029d610358366004611aec565b610992565b600d546102db565b6102db6103733660046117aa565b6109c7565b61027d610a0b565b61024a610a1a565b61024a610a50565b6102db600e5481565b6006546001600160a01b031661029d565b61027d610b10565b6102db6103c03660046117aa565b6001600160a01b031660009081526012602052604090205490565b61024a6103e9366004611a1b565b610b1f565b6102db610b2a565b600c5461029d906001600160a01b031681565b61024a610417366004611915565b610b35565b61042f61042a366004611802565b610b6d565b60405161026c9190612209565b61027d61044a366004611aec565b610c7d565b600a5461029d906001600160a01b031681565b6102db600b5481565b61024a610ce6565b61027d610d24565b6102db600d5481565b6102db610db2565b61025f61049a3660046117c8565b610dca565b61042f6104ad36600461198e565b610dfa565b61024a6104c03660046117aa565b610ecd565b6006546001600160a01b031633146104f85760405162461bcd60e51b81526004016104ef90612328565b60405180910390fd5b6002600754141561051b5760405162461bcd60e51b81526004016104ef90612398565b6002600755600d546009548261053060085490565b61053a91906123f8565b61054491906123f8565b106105615760405162461bcd60e51b81526004016104ef90612368565b600e548161056e60085490565b61057891906123f8565b106105955760405162461bcd60e51b81526004016104ef90612288565b60005b818110156105d85760006105ab60085490565b90506105bb600880546001019055565b6105c53382610f29565b50806105d0816124fd565b915050610598565b50506001600755565b60006001600160e01b0319821663152a902d60e11b1480610606575061060682610f43565b90505b919050565b60606000805461061d906124a3565b80601f0160208091040260200160405190810160405280929190818152602001828054610649906124a3565b80156106965780601f1061066b57610100808354040283529160200191610696565b820191906000526020600020905b81548152906001019060200180831161067957829003601f168201915b5050505050905090565b6000818152600260205260408120546001600160a01b03166106d45760405162461bcd60e51b81526004016104ef90612318565b506000908152600460205260409020546001600160a01b031690565b60006106fb82610992565b9050806001600160a01b0316836001600160a01b0316141561072f5760405162461bcd60e51b81526004016104ef90612358565b336001600160a01b038216148061074b575061074b813361049a565b6107675760405162461bcd60e51b81526004016104ef906122a8565b6107718383610f93565b505050565b60115460ff166107985760405162461bcd60e51b81526004016104ef90612338565b600260075414156107bb5760405162461bcd60e51b81526004016104ef90612398565b6002600755600d546009546008546107d391906123f8565b106107f05760405162461bcd60e51b81526004016104ef90612368565b600e54600854106108135760405162461bcd60e51b81526004016104ef90612288565b3360009081526012602052604090205461083f5760405162461bcd60e51b81526004016104ef906122f8565b600061084a60085490565b905061085a600880546001019055565b33600090815260126020526040812080546001929061087a908490612443565b9091555061088a90503382610f29565b506001600755565b61089c3382611001565b6108b85760405162461bcd60e51b81526004016104ef90612378565b610771838383611093565b60006108ce60085490565b905090565b60008281526002602052604081205481906001600160a01b03166109095760405162461bcd60e51b81526004016104ef90612298565b600c546001600160a01b031661092a61092385605a6111b5565b60646111c8565b915091505b9250929050565b61077183838360405180602001604052806000815250610b35565b6006546001600160a01b0316331461097b5760405162461bcd60e51b81526004016104ef90612328565b805161098e906010906020840190611639565b5050565b6000818152600260205260408120546001600160a01b0316806106065760405162461bcd60e51b81526004016104ef906122d8565b60006001600160a01b0382166109ef5760405162461bcd60e51b81526004016104ef906122c8565b506001600160a01b031660009081526003602052604090205490565b60606010805461061d906124a3565b6006546001600160a01b03163314610a445760405162461bcd60e51b81526004016104ef90612328565b610a4e60006111d4565b565b6006546001600160a01b03163314610a7a5760405162461bcd60e51b81526004016104ef90612328565b60026007541415610a9d5760405162461bcd60e51b81526004016104ef90612398565b6002600755600d54600954600854610ab591906123f8565b10610ad25760405162461bcd60e51b81526004016104ef90612368565b600f5460095410610af55760405162461bcd60e51b81526004016104ef90612388565b6000610b0060095490565b905061085a600980546001019055565b60606001805461061d906124a3565b61098e338383611226565b60006108ce60095490565b610b3f3383611001565b610b5b5760405162461bcd60e51b81526004016104ef90612378565b610b67848484846112c9565b50505050565b600a546000906001600160a01b03163314610b9a5760405162461bcd60e51b81526004016104ef906122e8565b600b5486866000818110610bbe57634e487b7160e01b600052603260045260246000fd5b9050602002013514610be25760405162461bcd60e51b81526004016104ef906122b8565b60018514610bef57600080fd5b83836000818110610c1057634e487b7160e01b600052603260045260246000fd5b9050602002013560126000896001600160a01b03166001600160a01b031681526020019081526020016000206000828254610c4b91906123f8565b909155507fbc197c819b3e337a6f9652dd10becd7eef83032af3b9d958d3d42f66941466219998505050505050505050565b6000818152600260205260409020546060906001600160a01b0316610cb45760405162461bcd60e51b81526004016104ef90612298565b6010610cbf836112fc565b604051602001610cd0929190612160565b6040516020818303038152906040529050919050565b6006546001600160a01b03163314610d105760405162461bcd60e51b81526004016104ef90612328565b6011805460ff19811660ff90911615179055565b60108054610d31906124a3565b80601f0160208091040260200160405190810160405280929190818152602001828054610d5d906124a3565b8015610daa5780601f10610d7f57610100808354040283529160200191610daa565b820191906000526020600020905b815481529060010190602001808311610d8d57829003601f168201915b505050505081565b6000610dbd60095490565b6008546108ce91906123f8565b6001600160a01b0380831660009081526005602090815260408083209385168352929052205460ff165b92915050565b600060026007541415610e1f5760405162461bcd60e51b81526004016104ef90612398565b6002600755600a546001600160a01b03163314610e4e5760405162461bcd60e51b81526004016104ef906122e8565b600b548414610e6f5760405162461bcd60e51b81526004016104ef906122b8565b6001600160a01b0385166000908152601260205260408120805460019290610e989084906123f8565b90915550506001600755507ff23a6e612e1ff4830e658fe43f4e3cb4a5f8170bd5d9e69fb5d7a7fa9e4fdf9795945050505050565b6006546001600160a01b03163314610ef75760405162461bcd60e51b81526004016104ef90612328565b6001600160a01b038116610f1d5760405162461bcd60e51b81526004016104ef90612238565b610f26816111d4565b50565b61098e828260405180602001604052806000815250611417565b60006001600160e01b031982166380ac58cd60e01b1480610f7457506001600160e01b03198216635b5e139f60e01b145b8061060657506301ffc9a760e01b6001600160e01b0319831614610606565b600081815260046020526040902080546001600160a01b0319166001600160a01b0384169081179091558190610fc882610992565b6001600160a01b03167f8c5be1e5ebec7d5bd14f71427d1e84f3dd0314c0f7b2291e5b200ac8c7c3b92560405160405180910390a45050565b6000818152600260205260408120546001600160a01b03166110355760405162461bcd60e51b81526004016104ef90612278565b600061104083610992565b9050806001600160a01b0316846001600160a01b0316148061107b5750836001600160a01b0316611070846106a0565b6001600160a01b0316145b8061108b575061108b8185610dca565b949350505050565b826001600160a01b03166110a682610992565b6001600160a01b0316146110cc5760405162461bcd60e51b81526004016104ef90612348565b6001600160a01b0382166110f25760405162461bcd60e51b81526004016104ef90612258565b6110fd600082610f93565b6001600160a01b0383166000908152600360205260408120805460019290611126908490612443565b90915550506001600160a01b03821660009081526003602052604081208054600192906111549084906123f8565b909155505060008181526002602052604080822080546001600160a01b0319166001600160a01b0386811691821790925591518493918716917fddf252ad1be2c89b69c2b068fc378daa952ba7f163c4a11628f55a4df523b3ef91a4505050565b60006111c18284612424565b9392505050565b60006111c18284612410565b600680546001600160a01b038381166001600160a01b0319831681179093556040519116919082907f8be0079c531659141344cd1fd0a4f28419497f9722a3daafe3b4186f6b6457e090600090a35050565b816001600160a01b0316836001600160a01b031614156112585760405162461bcd60e51b81526004016104ef90612268565b6001600160a01b0383811660008181526005602090815260408083209487168084529490915290819020805460ff1916851515179055517f17307eab39ab6107e8899845ad3d59bd9653f200f220920489ca2b5937696c31906112bc9085906121fb565b60405180910390a3505050565b6112d4848484611093565b6112e08484848461144a565b610b675760405162461bcd60e51b81526004016104ef90612228565b60608161132157506040805180820190915260018152600360fc1b6020820152610609565b8160005b811561134b5780611335816124fd565b91506113449050600a83612410565b9150611325565b60008167ffffffffffffffff81111561137457634e487b7160e01b600052604160045260246000fd5b6040519080825280601f01601f19166020018201604052801561139e576020820181803683370190505b5090505b841561108b576113b3600183612443565b91506113c0600a86612518565b6113cb9060306123f8565b60f81b8183815181106113ee57634e487b7160e01b600052603260045260246000fd5b60200101906001600160f81b031916908160001a905350611410600a86612410565b94506113a2565b6114218383611557565b61142e600084848461144a565b6107715760405162461bcd60e51b81526004016104ef90612228565b60006001600160a01b0384163b1561154c57604051630a85bd0160e11b81526001600160a01b0385169063150b7a029061148e90339089908890889060040161219c565b602060405180830381600087803b1580156114a857600080fd5b505af19250505080156114d8575060408051601f3d908101601f191682019092526114d591810190611a99565b60015b611532573d808015611506576040519150601f19603f3d011682016040523d82523d6000602084013e61150b565b606091505b50805161152a5760405162461bcd60e51b81526004016104ef90612228565b805181602001fd5b6001600160e01b031916630a85bd0160e11b14905061108b565b506001949350505050565b6001600160a01b03821661157d5760405162461bcd60e51b81526004016104ef90612308565b6000818152600260205260409020546001600160a01b0316156115b25760405162461bcd60e51b81526004016104ef90612248565b6001600160a01b03821660009081526003602052604081208054600192906115db9084906123f8565b909155505060008181526002602052604080822080546001600160a01b0319166001600160a01b03861690811790915590518392907fddf252ad1be2c89b69c2b068fc378daa952ba7f163c4a11628f55a4df523b3ef908290a45050565b828054611645906124a3565b90600052602060002090601f01602090048101928261166757600085556116ad565b82601f1061168057805160ff19168380011785556116ad565b828001600101855582156116ad579182015b828111156116ad578251825591602001919060010190611692565b506116b99291506116bd565b5090565b5b808211156116b957600081556001016116be565b60006116e56116e0846123cd565b6123b6565b9050828152602081018484840111156116fd57600080fd5b61170884828561246b565b509392505050565b8035610df481612584565b60008083601f84011261172d57600080fd5b50813567ffffffffffffffff81111561174557600080fd5b60208301915083602082028301111561092f57600080fd5b8035610df481612598565b8035610df4816125a0565b8051610df4816125a0565b600082601f83011261178f57600080fd5b813561108b8482602086016116d2565b8035610df4816125b0565b6000602082840312156117bc57600080fd5b600061108b8484611710565b600080604083850312156117db57600080fd5b60006117e78585611710565b92505060206117f885828601611710565b9150509250929050565b600080600080600080600060a0888a03121561181d57600080fd5b60006118298a8a611710565b975050602061183a8a828b01611710565b965050604088013567ffffffffffffffff81111561185757600080fd5b6118638a828b0161171b565b9550955050606088013567ffffffffffffffff81111561188257600080fd5b61188e8a828b0161171b565b9350935050608088013567ffffffffffffffff8111156118ad57600080fd5b6118b98a828b0161177e565b91505092959891949750929550565b6000806000606084860312156118dd57600080fd5b60006118e98686611710565b93505060206118fa86828701611710565b925050604061190b8682870161179f565b9150509250925092565b6000806000806080858703121561192b57600080fd5b60006119378787611710565b945050602061194887828801611710565b93505060406119598782880161179f565b925050606085013567ffffffffffffffff81111561197657600080fd5b6119828782880161177e565b91505092959194509250565b600080600080600060a086880312156119a657600080fd5b60006119b28888611710565b95505060206119c388828901611710565b94505060406119d48882890161179f565b93505060606119e58882890161179f565b925050608086013567ffffffffffffffff811115611a0257600080fd5b611a0e8882890161177e565b9150509295509295909350565b60008060408385031215611a2e57600080fd5b6000611a3a8585611710565b92505060206117f88582860161175d565b60008060408385031215611a5e57600080fd5b6000611a6a8585611710565b92505060206117f88582860161179f565b600060208284031215611a8d57600080fd5b600061108b8484611768565b600060208284031215611aab57600080fd5b600061108b8484611773565b600060208284031215611ac957600080fd5b813567ffffffffffffffff811115611ae057600080fd5b61108b8482850161177e565b600060208284031215611afe57600080fd5b600061108b848461179f565b60008060408385031215611b1d57600080fd5b6000611a6a858561179f565b611b328161245a565b82525050565b801515611b32565b6001600160e01b03198116611b32565b6000611b5a825190565b808452602084019350611b71818560208601612477565b601f01601f19169290920192915050565b6000611b8c825190565b611b9a818560208601612477565b9290920192915050565b60008154611bb1816124a3565b600182168015611bc85760018114611bd957611c09565b60ff19831686528186019350611c09565b60008581526020902060005b83811015611c0157815488820152600190910190602001611be5565b838801955050505b50505092915050565b603281526000602082017f4552433732313a207472616e7366657220746f206e6f6e20455243373231526581527131b2b4bb32b91034b6b83632b6b2b73a32b960711b602082015291505b5060400190565b602681526000602082017f4f776e61626c653a206e6577206f776e657220697320746865207a65726f206181526564647265737360d01b60208201529150611c5d565b601c81526000602082017f4552433732313a20746f6b656e20616c7265616479206d696e74656400000000815291505b5060200190565b602481526000602082017f4552433732313a207472616e7366657220746f20746865207a65726f206164648152637265737360e01b60208201529150611c5d565b601981526000602082017f4552433732313a20617070726f766520746f2063616c6c65720000000000000081529150611cd7565b602c81526000602082017f4552433732313a206f70657261746f7220717565727920666f72206e6f6e657881526b34b9ba32b73a103a37b5b2b760a11b60208201529150611c5d565b60118152600060208201704d41585f4e4f524d414c5f535550504c5960781b81529150611cd7565b60118152600060208201702727a722ac24a9aa22a72a2faa27a5a2a760791b81529150611cd7565b603881526000602082017f4552433732313a20617070726f76652063616c6c6572206973206e6f74206f7781527f6e6572206e6f7220617070726f76656420666f7220616c6c000000000000000060208201529150611c5d565b60078152600060208201664f4e4c595f474d60c81b81529150611cd7565b602a81526000602082017f4552433732313a2062616c616e636520717565727920666f7220746865207a65815269726f206164647265737360b01b60208201529150611c5d565b602981526000602082017f4552433732313a206f776e657220717565727920666f72206e6f6e657869737481526832b73a103a37b5b2b760b91b60208201529150611c5d565b601281526000602082017115d493d391d7d3919517d0d3d395149050d560721b81529150611cd7565b60058152600060208201644e4f5f563160d81b81529150611cd7565b60208082527f4552433732313a206d696e7420746f20746865207a65726f206164647265737391019081526000611cd7565b602c81526000602082017f4552433732313a20617070726f76656420717565727920666f72206e6f6e657881526b34b9ba32b73a103a37b5b2b760a11b60208201529150611c5d565b60208082527f4f776e61626c653a2063616c6c6572206973206e6f7420746865206f776e657291019081526000611cd7565b600a8152600060208201694e4f545f41435449564560b01b81529150611cd7565b602981526000602082017f4552433732313a207472616e73666572206f6620746f6b656e2074686174206981526839903737ba1037bbb760b91b60208201529150611c5d565b602181526000602082017f4552433732313a20617070726f76616c20746f2063757272656e74206f776e658152603960f91b60208201529150611c5d565b601081526000602082016f4d41585f544f54414c5f535550504c5960801b81529150611cd7565b603181526000602082017f4552433732313a207472616e736665722063616c6c6572206973206e6f74206f8152701ddb995c881b9bdc88185c1c1c9bdd9959607a1b60208201529150611c5d565b60128152600060208201714d41585f5350454349414c5f535550504c5960701b81529150611cd7565b601f81526000602082017f5265656e7472616e637947756172643a207265656e7472616e742063616c6c0081529150611cd7565b80611b32565b600061216c8285611ba4565b91506121788284611b82565b64173539b7b760d91b815291506005820161108b565b60208101610df48284611b29565b608081016121aa8287611b29565b6121b76020830186611b29565b6121c4604083018561215a565b81810360608301526121d68184611b50565b9695505050505050565b604081016121ee8285611b29565b6111c1602083018461215a565b60208101610df48284611b38565b60208101610df48284611b40565b602080825281016111c18184611b50565b6020808252810161060681611c12565b6020808252810161060681611c64565b6020808252810161060681611ca7565b6020808252810161060681611cde565b6020808252810161060681611d1f565b6020808252810161060681611d53565b6020808252810161060681611d9c565b6020808252810161060681611dc4565b6020808252810161060681611dec565b6020808252810161060681611e46565b6020808252810161060681611e64565b6020808252810161060681611eab565b6020808252810161060681611ef1565b6020808252810161060681611f1a565b6020808252810161060681611f36565b6020808252810161060681611f68565b6020808252810161060681611fb1565b6020808252810161060681611fe3565b6020808252810161060681612004565b602080825281016106068161204a565b6020808252810161060681612088565b60208082528101610606816120af565b60208082528101610606816120fd565b6020808252810161060681612126565b60208101610df4828461215a565b60006123c160405190565b905061060982826124d0565b600067ffffffffffffffff8211156123e7576123e761256e565b601f19601f83011660200192915050565b6000821982111561240b5761240b61252c565b500190565b60008261241f5761241f612542565b500490565b600081600019048311821515161561243e5761243e61252c565b500290565b6000828210156124555761245561252c565b500390565b60006001600160a01b038216610606565b82818337506000910152565b60005b8381101561249257818101518382015260200161247a565b83811115610b675750506000910152565b6002810460018216806124b757607f821691505b602082108114156124ca576124ca612558565b50919050565b601f19601f830116810181811067ffffffffffffffff821117156124f6576124f661256e565b6040525050565b60006000198214156125115761251161252c565b5060010190565b60008261252757612527612542565b500690565b634e487b7160e01b600052601160045260246000fd5b634e487b7160e01b600052601260045260246000fd5b634e487b7160e01b600052602260045260246000fd5b634e487b7160e01b600052604160045260246000fd5b61258d8161245a565b8114610f2657600080fd5b80151561258d565b6001600160e01b0319811661258d565b8061258d56fea26469706673582212201bec20893730909b902ccd6a96b5aab969d6ff124babce557d4cb919821e8d1064736f6c63430008020033",
  "linkReferences": {},
  "deployedLinkReferences": {}
}